:03000000021439AE
:0C143900787FE4F6D8FD7581680214800D
:100B2100E78EB000E69C8900E8B4A700E789A90038
:100B31003A003132330000000000000000000000E4
:100B410000000000000000000000000000000000A4
:100B51000000000000000000000000000000000094
:100B61000000000000000000000000000000000084
:100B7100000080C0C0E0E0E0F0FBFFFFFFFFFFFFEF
:100B8100FFFFFFFFFFFFFCFCFCFCFCFCF8F8C000D2
:100B91000000000000000000000000000000000054
:100BA1000000000000000000000000000000000044
:100BB1000000000000000000000000000000000034
:100BC1000000000000000000000000000000000024
:100BD1000000000000000000000000000000000014
:100BE10000000000000000000000000000C0F0FC58
:100BF100FEFFFFFFFFFFFFFFFFFFFFFFFFFFFFFF05
:100C0100FFFFFFFFFFFFFFFFFFFFFFFFFFFFFFFCF6
:100C1100E080000000000000000000000000000073
:100C210000000000000000000000000000000000C3
:100C310000000000000000000000000000000000B3
:100C410000000000000000000000000000000000A3
:100C51000000000000000000000000000000000093
:100C61000000000000000000000000043E7FFFFFC4
:100C7100FFFFFFFFFFFFFFFFFFFFFFFFFFFFFFFF83
:100C8100FFFFFFFFFFFFFFFFFFFFFFFFFFFFFFFF73
:100C9100FFFFFA000000000000000000000000005B
:100CA1000000000000000000000000000000000043
:100CB1000000000000000000000000000000000033
:100CC1000000000000000000000000000000000023
:100CD1000000000000000000000000000000000013
:100CE100000000000000000000C0000000800001C2
:100CF1003B3FFFFFFFFFFFFFFFFFFFFFFFFFFFFF87
:100D0100FFFFFFFFFFFFFFFFFFFFFFFFFFFFFFFFF2
:100D1100FFFFFFFF61000000000000000000000075
:100D210000000000000000000000000000000000C2
:100D310000000000000000000000000000000000B2
:100D410000000000000000000000000000000000A2
:100D51000000000000000000000000000000000092
:100D6100000000C0F8FCFEFEFFFFFFFFFFFFFFFFDA
:100D7100FFFFFFFDFBEFFFFFFFFFFFFFFFFFFFFF98
:100D8100FFFFFFFFFFFFFFFFFFFFFFFFFFFFFFFF72
:100D9100FFFFFFFFFE000000000000000000000058
:100DA1000000000000000000000000000000000042
:100DB1000000000000000000000000000000000032
:100DC1000000000000000000000000000000000022
:100DD1000000000000000000000000000000000012
:100DE10000000000071F3F7FFFFFFFFFFFFFFFFF26
:100DF100FFFFFFFFFFFED1FFFFFFFFFFFFFFFFFF31
:100E0100FFFFFFFFFFFFFFFFFFFFFFFFFFFFFFFFF1
:100E1100FFFFFFFFBFF8000000000000000000001E
:100E210000000000000000000000000000000000C1
:100E310000000000000000000000000000000000B1
:100E410000000000000000000000000000000000A1
:100E51000000000000000000000000000000000091
:100E610000000000000000E0FEFFFFFFFFFFFFFFAA
:100E7100FFFFFFFFFFFFFFFFFFFFFFFFFFFFFFFF81
:100E8100FFFFFFFFFFFFFFFFFFFFFFFFFFFFFFFF71
:100E91000D00000100000000000000000000000043
:100EA1000000000000000000000000000000000041
:100EB1000000000000000000000000000000000031
:100EC1000000000000000000000000000000000021
:100ED1000000000000000000000000000000000011
:100EE100000000000000FEFFFFFFFFFFFFFFFFFF0C
:100EF100FFFFFFFFFFFFFFFFFFFFFFFFFFFFFFFF01
:100F0100FFFFFFFFFFFFFFFFFFFFFFFFFFFFFFFFF0
:100F1100F0F0F0F8F0F0F0B89000000000000000F0
:100F210000000000000000000000000000000000C0
:060F3100000000000000BA
:0E19D4000235000A023D0000013700013C0010
:10169A007BFF7A0B7921E4F5447D027F011210A3C6
:1016AA007BFF7A0B7925E4F5447D047F011210A3B0
:1016BA007BFF7A0B7929E4F5447D067F011210A39A
:1016CA007BFF7A0B792DE4F5447D087F011210A384
:1016DA007BFF7A0B7931E4F5647D0A7F010214C538
:10000E0012192E121A1412117A12177712139A8EBF
:05001E00088F0980F7C6
:030023000215457E
:10154500C0E0C0F0C083C082C0D075D000C000C06C
:1015550001C002C003C004C005C006C007309843DF
:10156500C298D3E53E9403E53D94004008753D00DF
:10157500753E00800E053EE53E7002053D1424389B
:10158500F8A699E538B46F1BE539B47016E53AB499
:101595006511E53BB46E0C7537017BFF7A0B79332A
:1015A5001218E8D007D006D005D004D003D002D059
:0E15B50001D000D0D0D082D083D0F0D0E03270
:1000260000000000000000000000000000000000CA
:10003600000000F80000000000000033300000005F
:1000460000100C06100C0600000000000000000066
:1000560040C07840C0784000043F04043F040400D8
:10006600007088FC08300000001820FF211E0000E8
:10007600F008F000E018000000211C031E211E00FD
:1000860000F00888700000001E2123241927211083
:1000960010160E0000000000000000000000000026
:1000A600000000E0180402000000000718204000CD
:1000B60000020418E00000000040201807000000BD
:1000C600404080F0804040000202010F0102020021
:1000D600000000F0000000000101011F0101010005
:1000E600000000000000000080B07000000000006A
:1000F60000000000000000000001010101010101F3
:100106000000000000000000003030000000000089
:10011600000000008060180400601806010000005E
:1001260000E010080810E000000F102020100F005B
:10013600001010F8000000000020203F20200000E2
:10014600007008080888700000302824222130003A
:1001560000300888884830000018202020110E0042
:100166000000C02010F8000000070424243F2400EB
:1001760000F80888880808000019212020110E00C0
:1001860000E0108888180000000F112020110E00D2
:1001960000380808C83808000000003F00000000CA
:1001A6000070880808887000001C222121221C008B
:1001B60000E010080810E0000000312222110F00B4
:1001C600000000C0C0000000000000303000000049
:1001D60000000080000000000000806000000000B9
:1001E60000008040201008000001020408102000D2
:1001F600404040404040400004040404040404001D
:1002060000081020408000000020100804020100B1
:10021600007048080808F0000000003036010000B1
:10022600C030C828E810E0000718272423140B0064
:100236000000C038E0000000203C230202273820DE
:1002460008F8888888700000203F202020110E00C2
:10025600C0300808080838000718202020100800B9
:1002660008F808080810E000203F202020100F00A2
:1002760008F88888E8081000203F2020232018006E
:1002860008F88888E8081000203F200003000000D6
:10029600C03008080838000007182020221E020077
:1002A60008F808000008F808203F210101213F2036
:1002B600000808F8080800000020203F2020000061
:1002C60000000808F8080800C08080807F00000051
:1002D60008F888C028180800203F2001263820008A
:1002E60008F8080000000000203F202020203000F1
:1002F60008F8F800F8F80800203F003F003F20000B
:1003060008F830C00008F808203F200007183F0012
:10031600E01008080810E0000F10202020100F0041
:1003260008F808080808F000203F21010101000034
:10033600E01008080810E0000F18242438504F0079
:1003460008F8888888887000203F2000030C302039
:1003560000708808080838000038202121221C0077
:10036600180808F8080818000000203F20000000C0
:1003760008F808000008F808001F202020201F00A9
:100386000878880000C83808000007380E01000009
:10039600F80800F80008F800033C0700073C0300D3
:1003A600081868808068180820302C03032C302039
:1003B6000838C800C83808000000203F20000000A8
:1003C60010080808C8380800203826212020180000
:1003D600000000FE020202000000007F40404000D4
:1003E600000C30C000000000000000010638C0000C
:1003F60000020202FE000000004040407F000000B4
:1004060000000402020204000000000000000000D8
:1004160000000000000000008080808080808080D6
:1004260000020204000000000000000000000000BE
:1004360000008080808000000019242222223F20B4
:1004460008F8008080000000003F112020110E00F7
:100456000000008080800000000E11202020110086
:10046600000000808088F800000E112020103F2038
:100476000000808080800000001F222222221300BC
:10048600008080F0888888180020203F2020000007
:100496000000808080808000006B949494936000BC
:1004A60008F8008080800000203F210000203F20C7
:1004B60000809898000000000020203F20200000C7
:1004C600000000809898000000C08080807F0000B7
:1004D60008F8000080808000203F24022D30200094
:1004E600000808F8000000000020203F202000003F
:1004F6008080808080808000203F20003F20003F59
:100506008080008080800000203F210000203F2066
:100516000000808080800000001F202020201F0017
:10052600808000808000000080FFA12020110E0046
:100536000000008080808000000E112020A0FF8037
:10054600808080008080800020203F2120000100E4
:100556000000808080808000003324242424190039
:10056600008080E0808000000000001F2020000046
:100576008080000000808000001F202020103F2087
:10058600808080000080808000010E300806010017
:1005960080800080008080800F300C030C300F00BC
:1005A60000808000808080000020312E0E312000E7
:1005B600808080000080808080818E701806010017
:1005C60000808080808080000021302C2221300035
:1005D60000000000807C020200000000003F404056
:1005E60000000000FF00000000000000FF00000007
:1005F6000002027C800000000040403F0000000036
:1006060000060101020204040000000000000000D0
:10061600E78EB0048484FC848400FE0202F20202A7
:10062600FE00002060201F109040231806017E80E7
:1006360083E000E69C8904040484E43C2724242403
:1006460024E40404040004020100FF09090909491D
:10065600897F00000000E8B4A72010087C03101072
:10066600103F484844447000000080809F4141216B
:100676001D0121215F40800000E789A9403C10FF51
:10068600101020108F7808F808F80000020602FF04
:0C0696000101044221184681403F000091
:0E19E70000007F167E037DE3DDFEDEFCDFFAEE
:0119F50022CF
:1016EA00C2878F20A2079286D287C287A2069286D5
:1016FA00D287C287A2059286D287C287A20492861F
:10170A00D287C287A2039286D287C287A202928612
:10171A00D287C287A2019286D287C287A200928606
:09172A00D287C287D287C2872250
:1018BC00F583E5822517F582E43583F583E493F40B
:0318CC00FF7D405D
:1018CF008F198D1A1219F67F781216EAAF1A12169F
:0918DF00EAAF191216EA021A30F0
:0D185C00E51325E004FFE51475F008A4FD78
:101869008D18EF24B0FFE4FD1218CFE51854F0C429
:10187900540F4410FFE4FD1218CFE518540FFFE48C
:04188900FD0218CF75
:1017F2008F0AE4FD7F201218CFE4FDAF0A1218CF42
:10180200E4FD7F211218CFE4FDFF1218CFE4FD7F23
:101812007F1218CFE4FD7F221218CFE4FDFF1218C9
:08182200CFE4FD7F070218CF9F
:10194B00E4F50AF50B7D40E4FF1218CF050BE50B10
:0B195B007002050AC3E50A940440EA8C
:01196600225E
:08163A008B588A59895AAF054B
:101642001217F2E55C6027E4F55DF55EAB58AA5926
:10165200A95A855E82855D831209201218CB055E28
:10166200E55E7002055DC3E55D940440DF22E4F5AA
:101672005DF55EAB58AA59A95A855E82855D8312D3
:101682000920FF7D401218CF055EE55E7002055D00
:07169200C3E55D940440DC98
:01169900222E
:061238008F138D148B15CD
:10123E00E5166045E51325E0121861E4F51775F023
:10124E0010E515A42426F582E5F034FE1218BC052F
:10125E0017E517C3940840E612185CE4F51775F00D
:10126E0010E515A4242EF582E5F034FE1218BC0507
:10127E0017E517C3940840E622E51325E01218611E
:10128E00E4F51775F010E515A42426F582E5F03483
:10129E00FEF583E5822517F582E43583F583E49325
:1012AE00FF7D401218CF0517E517C3940840D412DE
:1012BE00185CE4F51775F010E515A4242EF582E5FB
:1012CE00F034FEF583E5822517F582E43583F58348
:1012DE00E493FF7D401218CF0517E517C39408401D
:0112EE00D42B
:0112EF0022DC
:0A10A3008F3F8D408B418A42894344
:1010AD00E4F545F546AB41AA42A943120907FF9065
:1010BD00061675F023E546120A47E54575F023A49B
:1010CD002583F583E4936F6003021165900001128F
:1010DD000920FF90061775F023E546120A47E545EE
:1010ED0075F023A42583F583E4936F706BE53F259D
:1010FD00E0FFE540121864E4F547E547B4100BE551
:10110D003F25E004FFE540121864E544601FE54605
:10111D0075F023A42419F582E43406F583E58225C0
:10112D0047F582E43583F583E493F4801CE5467539
:10113D00F023A42419F582E43406F583E5822547CE
:10114D00F582E43583F583E493FF7D401218CF05D6
:10115D0047E547C3942040A20546E5467002054584
:0C116D00C39404E545940050030210B246
:011179002253
:1014C5008F5F8D608B618A628963E4FF1217F2ABCF
:1014D50061AA62A963120907606530E71B85644448
:1014E500AD60AF5F1210A374022563F563E4356246
:1014F500F562056005608021AB61AA62A9631209E6
:1015050007FB856416AD60AF5F1212387401256361
:10151500F563E43562F5620560AB61AA62A9631201
:10152500090730E709E560C3940F400C8005E560C5
:10153500B41005055FE4F560E55F6404709122224F
:0812F0008F0A8D0B8A0C8B0D97
:1012F800850C10850D11E50D450C7007F5167B3032
:10130800021238E4F50EF50FD3E50D9400E50C94C0
:1013180000402CAB0DAA0C7C007D0AAF03AE021274
:1013280009B4AA04AB05AE0CAF0D7C007D0A120906
:101338005F8E0C8F0D050FE50F70CD050E80C9E48B
:10134800F512AF127E00C3EF950FE50E6480F874B6
:101358008098503DC3E50F9FCFE50E9ECF24FFFD3B
:10136800EF34FFFC7F0A12190EAC10AD11CFCDCFB0
:10137800CECCCE12095F7C007D0A12095FED2430C5
:10138800FBAD0B050BE4F516AF0A121238051280F7
:01139800B1A3
:011399002231
:08190E008E138F14AB05AA042F
:101916007F017E00EB1BAC0270011A4C6009AC1310
:07192600AD1412094D80ED24
:01192D002297
:10117A001219E7E4FD7FAE1218CFE4FDFF1218CF73
:10118A00E4FD7F101218CFE4FD7F401218CFE4FD72
:10119A007FB01218CFE4FD7F811218CFE4FD7FFFE4
:1011AA001218CFE4FD7FA11218CFE4FD7FA6121812
:1011BA00CFE4FD7FA81218CFE4FD7F3F1218CFE4D9
:1011CA00FD7FC81218CFE4FD7FD31218CFE4FDFFCC
:1011DA001218CFE4FD7FD51218CFE4FD7F801218D4
:1011EA00CFE4FD7FD91218CFE4FD7FF11218CFE4C6
:1011FA00FD7FDA1218CFE4FD7F121218CFE4FD7FCB
:10120A00DB1218CFE4FD7F301218CFE4FD7F8D1278
:10121A0018CFE4FD7F141218CFE4FD7FAF1218CF68
:0E122A00E4FDFF121869E4FF1217F202194BDF
:1015C3000D0A0041542B43574D4F44453D330041D1
:1015D300542B554152543D393630302C382C312C54
:1015E300302C300041542B43574A41503D2253681D
:1015F300696E6F6275222C227177656173647A78E4
:10160300633132333435220041542B41544B434C24
:10161300445354413D22323532373738343532342E
:1016230039333232333331313433222C22313233B2
:071633003435363738220080
:101777007FE87E031219967BFF7A1579C31217B992
:101787007BFF7A1579C61217B97BFF7A1579D212C2
:1017970017B97BFF7A1579E71217B97FB87E0B1255
:1017A70019967BFF7A16790B1217B97FB87E0B0251
:0217B700199681
:0419E200024C0000B3
:08000300D292121A4DC29222A2
:10139A001200033093FDD28C2093FDC28CAF8CEFE8
:1013AA00FEAD8A7C00E42DF549EC3EF548E4F58C67
:1013BA00F58AAC48AD4912084D7B9A7A9979D97861
:1013CA003F1206A2E4FBFA79C878421207AB120868
:1013DA00868E4C8F4D854C4E854D4FAE4EAF4F7C11
:1013EA00007D0A12095FE54D2FCFE54C3ECF24015F
:1013FA00F54DE43FF54CE54B6401454A7006F54A64
:10140A00F54B802612194BAB4DAA4C7D027F021276
:10141A0012F0E4F5167B637D057F02121238E4F5BB
:0F142A00167B6D7D067F02121238AE4CAF4D223D
:03000B00021A5D79
:071A5D00754A00754B0132D0
:080F37008C508D518A528B533E
:100F3F00E4F554F555FCFDFB7A02F9F81209EAE4E1
:100F4F007B2DFAF9F81217338E568F57E55145500E
:100F5F006003020FFFE5571557AE56700215564E38
:100F6F007003020FFBE5547062E555B40800505B47
:100F7F00900F86F8282873020F9E020FA4020FAA63
:100F8F00020FB4020FBA020FC4020FCE020FD2D259
:100F9F0090C291800AD290D2918004C290D291C215
:100FAF0092C2938026C290D2918004C290C291D2F5
:100FBF0092C2938016C290C291D292D293800CC2E9
:100FCF00908002D290C291C292D293AE54AF557C10
:100FDF00007D0712095F8C548D550555E55570023C
:100FEF000554AF53AE52121996020F647567012262
:100FFF00E5516401455060030210A2E5571557AE45
:10100F0056700215564E700302109FE5547060E53E
:10101F0055B40800505990102CF82828730210442A
:10102F0002104802105202105C02106202106C0291
:10103F001070021076D2908002C290C291C292D2EA
:10104F0093802CC290C291D292D2938022C290C22E
:10105F00918004C290D291D292C2938012C290809A
:10106F0002D290D2918004D290C291C292C293AE1A
:10107F0054AF557C007D0712095F8C548D55055573
:10108F00E55570020554AF53AE5212199602100A6D
:03109F00E4F5670E
:0110A200222B
:091A3C00C290C291C292C2932231
:10199600EF4E6010007D0B7CBEDCFEDDFCEF1F70A1
:0419A600EF1E80ECC4
:0119AA00221A
:071A45000000007F0ADFFE34
:011A4C002277
:071A4D000000007F18DFFE1E
:011A5400226F
:0D1A2300E4F5C7F5C5F5C675C380F5C4220E
:1019670075C78275C5018FC48EC375C65A75C6A55E
:0819770000AFC27E00121A232A
:01197F002245
:1019800075C78275C5028FC48EC38DC275C65A7560
:06199000C6A500021A23A7
:1019C00075C78275C5038FC48EC375C65A75C6A503
:0419D00000021A23D4
:0F19F600D286D287121A45C286121A45C287229C
:0C1A3000C286D287121A45D286021A45DF
:02182A008F1E0F
:10182C00E4F51F74807E00A81F088006CEA2E71383
:10183C00CE13D8F8FFEF551E24FF9286D287121ACA
:0F184C0045C287121A45051FE51FC3940840D4F3
:01185B00226A
:10188D00E4F566D286F565D287121A4530860FAF1C
:10189D00657480A807088002C313D8FC4266C2870E
:0E18AD00121A450565E565C3940840DBAF6679
:0118BB00220A
:0F1A0500EF24FF9286D287121A45C287021A4534
:1019AB00D286121A45D287A286E433F568C2871213
:0419BB001A45AF68B2
:0119BF002205
:10192E0053877F75985053890F438920758BFD75AA
:0D193E008DFDC2ABD28ED29CD2ACD2AF22B6
:081A55008F993099FDC299221E
:1018E8008B1B8A1C891DAB1BAA1CA91D120907FF8B
:1018F8006013121A55121A457401251DF51DE43599
:061908001CF51C80E12229
:1017B9008B0A8A0B890CAB0AAA0BA90C120907FF21
:1017C9006013121A55121A457401250CF50CE435EB
:1017D9000BF50B80E17F0D121A55121A457F0A127B
:0917E9001A557FB87E0B02199617
:0F1A1400758901E4F58BF58DD2A9C28CD2AF2272
:1006A200EC4D6011E8497017ED33EC3304600DE452
:1006B200FCFFFEFD22E933E8330470F80208F2126F
:1006C20008BD58046009E4CC248150062850090270
:1006D20008FC2840030208F9C0E0EB4A7044B980E4
:1006E20006D0E0FB0208E8EF4E701CBD8008EBFF6D
:1006F200EAFEE9FD80EBE98DF0A4FEE5F002078B4E
:10070200E9CDF9EAFEEBFFEF89F0A4FCE5F0CE8932
:10071200F0A42EFFE435F0CD89F0A42DFEE435F0EF
:100722008067EF4E7005BD80D780C3EF8BF0A4AC1D
:10073200F0EE8BF0A42CFCE435F0F8EF8AF0A42C58
:10074200E5F038FCE433CB8DF0A42CFCE5F03BF86B
:10075200EE8AF0A42CFCE5F038F8E433CF89F0A45B
:100762002CFCE5F038CF3400CE89F0A42FFFE5F061
:100772003EFEE433C98DF0A42EFEE5F039CD8AF0B9
:10078200A42FFFE5F03EFEE43DFD33D0E0FB500731
:100792000BBB000F0208FCEC2CFCEF33FFEE33FE28
:0607A200ED33FD0208D456
:1007A8000208FCEC5D046005E8590470030208F2D5
:1007B8001208BD580460F6EC4860F2EC7004FDFEC7
:1007C800FF22C860DB2481C85009C3986002500624
:1007D8000208F99850CAF582E9294B4A7005AB829C
:1007E8000208E875F0007C1A7880C3EF9BEE9AED5A
:1007F80099400DC3EF9BFFEE9AFEED99FDE842F09C
:10080800DC23ACF0D0E0FFD0E0FED0E0FDAB8220EE
:10081800E7101BEB60BAEC2CFCEF33FFEE33FEED78
:1008280033FD0208D4E803F830E705C0F075F0009E
:10083800EF2FFFEE33FEED33FD40B830E7C280AA5C
:1008480075F020800E75F010800575F0087D007E2B
:10085800007F003392D530D503120A39EC334010AB
:10086800EF33FFEE33FEED33FDEC33FCD5F0ED2234
:0E087800E5F0247EA2D513CC92E7CDCEFF2270
:10088600EDD2E7CD33EC3392D524814006E4FFFE6A
:10089600FDFC22FCE4CFCECDCC24E0501174FF80C9
:1008A600EDC3CC13CCCD13CDCE13CECF13CF047066
:0708B600F030D5DE020A3923
:1008BD00E9D2E7C933E833F892D5EDD2E7CD33EC81
:0708CD0033FC5002B2D522FA
:1008D400EC30E7100FBF000C0EBE00080DBD000485
:1008E4000BEB6014A2D5EB13FCED92E7FD2274FF31
:1008F400FCFDFEFF22E480F8A2D574FF13FC7D808A
:03090400E480EF9D
:1014450002000EE493A3F8E493A34003F68001F2AF
:1014550008DFF48029E493A3F85407240CC8C333A8
:10146500C4540F4420C8834004F456800146F6DF77
:10147500E4800B01020408102040809019D4E47E1A
:10148500019360BCA3FF543F30E509541FFEE4936C
:10149500A360010ECF54C025E060A840B8E493A333
:1014A500FAE493A3F8E493A3C8C582C8CAC583CA5E
:1014B500F0A3C8C582C8CAC583CADFE9DEE780BE16
:0119E6000000
:10090700BB010689828A83E0225002E722BBFE02EE
:09091700E32289828A83E4932221
:10092000BB010CE58229F582E5833AF583E022508C
:1009300006E92582F8E622BBFE06E92582F8E222D6
:0D094000E58229F582E5833AF583E49322F0
:10094D00EF8DF0A4A8F0CF8CF0A428CE8DF0A42EBE
:02095D00FE2278
:10095F00BC000BBE0029EF8DF084FFADF022E4CC7C
:10096F00F875F008EF2FFFEE33FEEC33FCEE9DEC45
:10097F00984005FCEE9DFE0FD5F0E9E4CEFD22ED8B
:10098F00F8F5F0EE8420D21CFEADF075F008EF2FD5
:10099F00FFED33FD4007985006D5F0F222C398FDC6
:0509AF000FD5F0EA2263
:1009B400C2D5EC30E709B2D5E4C39DFDE49CFCEE5E
:1009C40030E715B2D5E4C39FFFE49EFE12095FC36E
:1009D400E49DFDE49CFC800312095F30D507C3E469
:0609E4009FFFE49EFE22CD
:1009EA00E88FF0A4CC8BF0A42CFCE98EF0A42CFCAC
:1009FA008AF0EDA42CFCEA8EF0A4CDA8F08BF0A42A
:100A0A002DCC3825F0FDE98FF0A42CCD35F0FCEB88
:100A1A008EF0A4FEA9F0EB8FF0A4CFC5F02ECD394D
:0F0A2A00FEE43CFCEAA42DCE35F0FDE43CFC22BA
:10173300C2D5E830E70FB2D5E4C39BFBE49AFAE4E1
:1017430099F9E498F8EC30E717B2D5121769120A41
:101753008FE4C39BFBE49AFAE499F9E498F88003D5
:10176300120A8F30D50DE4C39FFFE49EFEE49DFD76
:04177300E49CFC22D4
:0E0A3900C3E49FFFE49EFEE49DFDE49CFC22CE
:0C0A4700A42582F582E5F03583F58322BA
:100A530075F008758200EF2FFFEE33FECD33CDCC5A
:100A630033CCC58233C5829BED9AEC99E5829840DD
:100A73000CF582EE9BFEED9AFDEC99FC0FD5F0D6BA
:100A8300E4CEFBE4CDFAE4CCF9A88222B800C1B9E4
:100A93000059BA002DEC8BF084CFCECDFCE5F0CB22
:100AA300F97818EF2FFFEE33FEED33FDEC33FCEB5B
:100AB30033FB10D703994004EB99FB0FD8E5E4F916
:100AC300FA227818EF2FFFEE33FEED33FDEC33FC03
:100AD300C933C910D7059BE99A4007EC9BFCE99AF7
:100AE300F90FD8E0E4C9FAE4CCFB2275F010EF2F3C
:100AF300FFEE33FEED33FDCC33CCC833C810D7073C
:100B03009BEC9AE899400AED9BFDEC9AFCE899F876
:0E0B13000FD5F0DAE4CDFBE4CCFAE4C8F92209
:00000001FF
